{
    "contractName": "Lottery",
    "abi": [
        {
            "inputs": [],
            "stateMutability": "nonpayable",
            "type": "constructor"
        },
        {
            "inputs": [],
            "name": "getSomeValue",
            "outputs": [
                {
                    "internalType": "uint256",
                    "name": "value",
                    "type": "uint256"
                }
            ],
            "stateMutability": "pure",
            "type": "function"
        },
        {
            "inputs": [],
            "name": "owner",
            "outputs": [
                {
                    "internalType": "address",
                    "name": "",
                    "type": "address"
                }
            ],
            "stateMutability": "view",
            "type": "function"
        }
    ],
    "bytecode": "6080604052348015600f57600080fd5b50600080546001600160a01b0319163317905560aa806100306000396000f3fe6080604052348015600f57600080fd5b506004361060325760003560e01c80638da5cb5b146037578063a40674b7146066575b600080fd5b6000546049906001600160a01b031681565b6040516001600160a01b0390911681526020015b60405180910390f35b60405160058152602001605d56fea2646970667358221220811bf27cfb1434bf33d717ed5ad3e66f115bcb9280adc03634a0e06ef265ce4864736f6c63430008060033",
    "sourcePath": "c:/Users/tkdan/github/Lottery-Daap/lottery-smart-contract/contracts/Lottery.sol",
    "compiler": {
        "name": "solc",
        "version": "0.8.6+commit.11564f7e"
    },
    "functionHashes": {
        "getSomeValue()": "a40674b7",
        "owner()": "8da5cb5b"
    },
    "gasEstimates": {
        "creation": {
            "codeDepositCost": "34000",
            "executionCost": "24322",
            "totalCost": "58322"
        },
        "external": {
            "getSomeValue()": "177",
            "owner()": "2304"
        }
    }
}